{
  "contractName": "Storage",
  "abi": [
    {
      "inputs": [],
      "stateMutability": "nonpayable",
      "type": "constructor"
    },
    {
      "anonymous": false,
      "inputs": [
        {
          "components": [
            {
              "internalType": "string",
              "name": "name",
              "type": "string"
            },
            {
              "internalType": "string",
              "name": "email",
              "type": "string"
            }
          ],
          "indexed": false,
          "internalType": "struct Storage.user",
          "name": "",
          "type": "tuple"
        }
      ],
      "name": "userAdded",
      "type": "event"
    },
    {
      "inputs": [
        {
          "internalType": "address",
          "name": "",
          "type": "address"
        }
      ],
      "name": "store",
      "outputs": [
        {
          "internalType": "string",
          "name": "name",
          "type": "string"
        },
        {
          "internalType": "string",
          "name": "email",
          "type": "string"
        }
      ],
      "stateMutability": "view",
      "type": "function",
      "constant": true
    },
    {
      "inputs": [
        {
          "components": [
            {
              "internalType": "string",
              "name": "name",
              "type": "string"
            },
            {
              "internalType": "string",
              "name": "email",
              "type": "string"
            }
          ],
          "internalType": "struct Storage.user",
          "name": "details",
          "type": "tuple"
        }
      ],
      "name": "addUser",
      "outputs": [],
      "stateMutability": "nonpayable",
      "type": "function"
    },
    {
      "inputs": [
        {
          "internalType": "address",
          "name": "add",
          "type": "address"
        }
      ],
      "name": "getUser",
      "outputs": [
        {
          "internalType": "string",
          "name": "",
          "type": "string"
        },
        {
          "internalType": "string",
          "name": "",
          "type": "string"
        }
      ],
      "stateMutability": "nonpayable",
      "type": "function"
    }
  ],
  "bytecode": "0x608060405234801561001057600080fd5b50336000806101000a81548173ffffffffffffffffffffffffffffffffffffffff021916908373ffffffffffffffffffffffffffffffffffffffff16021790555061005961005f565b50610079565b604051806040016040528060608152602001606081525090565b610a3a806100886000396000f3fe608060405234801561001057600080fd5b50600436106100415760003560e01c80636f77926b146100465780639e39db7314610077578063feef4456146100a8575b600080fd5b610060600480360381019061005b919061058b565b6100c4565b60405161006e929190610651565b60405180910390f35b610091600480360381019061008c919061058b565b6102c2565b60405161009f929190610651565b60405180910390f35b6100c260048036038101906100bd919061084f565b6103f6565b005b6060807f757b15bea84efc4d89aa600e3459c9d3c30d68482d14336268cbd6ce603d96d1600160003373ffffffffffffffffffffffffffffffffffffffff1673ffffffffffffffffffffffffffffffffffffffff16815260200190815260200160002060405161013491906109e2565b60405180910390a16000600160008573ffffffffffffffffffffffffffffffffffffffff1673ffffffffffffffffffffffffffffffffffffffff168152602001908152602001600020604051806040016040529081600082018054610198906108c7565b80601f01602080910402602001604051908101604052809291908181526020018280546101c4906108c7565b80156102115780601f106101e657610100808354040283529160200191610211565b820191906000526020600020905b8154815290600101906020018083116101f457829003601f168201915b5050505050815260200160018201805461022a906108c7565b80601f0160208091040260200160405190810160405280929190818152602001828054610256906108c7565b80156102a35780601f10610278576101008083540402835291602001916102a3565b820191906000526020600020905b81548152906001019060200180831161028657829003601f168201915b5050505050815250509050806000015181602001519250925050915091565b60016020528060005260406000206000915090508060000180546102e5906108c7565b80601f0160208091040260200160405190810160405280929190818152602001828054610311906108c7565b801561035e5780601f106103335761010080835404028352916020019161035e565b820191906000526020600020905b81548152906001019060200180831161034157829003601f168201915b505050505090806001018054610373906108c7565b80601f016020809104026020016040519081016040528092919081815260200182805461039f906108c7565b80156103ec5780601f106103c1576101008083540402835291602001916103ec565b820191906000526020600020905b8154815290600101906020018083116103cf57829003601f168201915b5050505050905082565b80600160003373ffffffffffffffffffffffffffffffffffffffff1673ffffffffffffffffffffffffffffffffffffffff1681526020019081526020016000206000820151816000019080519060200190610452929190610476565b50602082015181600101908051906020019061046f929190610476565b5090505050565b828054610482906108c7565b90600052602060002090601f0160209004810192826104a457600085556104eb565b82601f106104bd57805160ff19168380011785556104eb565b828001600101855582156104eb579182015b828111156104ea5782518255916020019190600101906104cf565b5b5090506104f891906104fc565b5090565b5b808211156105155760008160009055506001016104fd565b5090565b6000604051905090565b600080fd5b600080fd5b600073ffffffffffffffffffffffffffffffffffffffff82169050919050565b60006105588261052d565b9050919050565b6105688161054d565b811461057357600080fd5b50565b6000813590506105858161055f565b92915050565b6000602082840312156105a1576105a0610523565b5b60006105af84828501610576565b91505092915050565b600081519050919050565b600082825260208201905092915050565b60005b838110156105f25780820151818401526020810190506105d7565b83811115610601576000848401525b50505050565b6000601f19601f8301169050919050565b6000610623826105b8565b61062d81856105c3565b935061063d8185602086016105d4565b61064681610607565b840191505092915050565b6000604082019050818103600083015261066b8185610618565b9050818103602083015261067f8184610618565b90509392505050565b600080fd5b7f4e487b7100000000000000000000000000000000000000000000000000000000600052604160045260246000fd5b6106c582610607565b810181811067ffffffffffffffff821117156106e4576106e361068d565b5b80604052505050565b60006106f7610519565b905061070382826106bc565b919050565b600080fd5b600080fd5b600080fd5b600067ffffffffffffffff8211156107325761073161068d565b5b61073b82610607565b9050602081019050919050565b82818337600083830152505050565b600061076a61076584610717565b6106ed565b90508281526020810184848401111561078657610785610712565b5b610791848285610748565b509392505050565b600082601f8301126107ae576107ad61070d565b5b81356107be848260208601610757565b91505092915050565b6000604082840312156107dd576107dc610688565b5b6107e760406106ed565b9050600082013567ffffffffffffffff81111561080757610806610708565b5b61081384828501610799565b600083015250602082013567ffffffffffffffff81111561083757610836610708565b5b61084384828501610799565b60208301525092915050565b60006020828403121561086557610864610523565b5b600082013567ffffffffffffffff81111561088357610882610528565b5b61088f848285016107c7565b91505092915050565b7f4e487b7100000000000000000000000000000000000000000000000000000000600052602260045260246000fd5b600060028204905060018216806108df57607f821691505b6020821081036108f2576108f1610898565b5b50919050565b600082825260208201905092915050565b60008190508160005260206000209050919050565b6000815461092b816108c7565b61093581866108f8565b94506001821660008114610950576001811461096257610995565b60ff1983168652602086019350610995565b61096b85610909565b60005b8381101561098d5781548189015260018201915060208101905061096e565b808801955050505b50505092915050565b600060408301600080840185830360008701526109bb838261091e565b9250506001840185830360208701526109d4838261091e565b925050819250505092915050565b600060208201905081810360008301526109fc818461099e565b90509291505056fea264697066735822122013417c78bf45b93c09253be11b87f95a8dd163bd3500fb48b495b3902348a19364736f6c634300080e0033",
  "immutableReferences": {},
  "source": "// SPDX-License-Identifier: MIT\npragma solidity >=0.4.22 <0.9.0;\ncontract Storage{\n    address admin;\n    struct user{\n        string name;\n        string email;\n    }\n    mapping (address=>user) public store;\n    constructor(){\n        admin=msg.sender;\n        user memory u;\n        \n    }    \n    event userAdded(\n        user\n    );  \n    function addUser(user memory details) public{\n        store[msg.sender]=details;\n        // emit userAdded(details);\n    }\n    function getUser(address add) public  returns (string memory,string memory){\n        emit userAdded(store[msg.sender]);\n        user memory u=store[add];\n        return(u.name,u.email);\n    }\n}\n\n\n",
  "sourcePath": "/home/arnish/DEV/metamask-blockchhain-auth/contracts/Storage.sol",
  "compiler": {
    "name": "solc",
    "version": "0.8.14+commit.80d49f37.Emscripten.clang"
  },
  "schemaVersion": "3.4.7",
  "updatedAt": "2022-06-06T19:19:45.332Z",
  "networkType": "ethereum",
  "devdoc": {
    "kind": "dev",
    "methods": {},
    "version": 1
  },
  "userdoc": {
    "kind": "user",
    "methods": {},
    "version": 1
  }
}