{
  "contractName": "Storage",
  "abi": [
    {
      "inputs": [],
      "stateMutability": "nonpayable",
      "type": "constructor"
    },
    {
      "anonymous": false,
      "inputs": [
        {
          "components": [
            {
              "internalType": "string",
              "name": "name",
              "type": "string"
            },
            {
              "internalType": "string",
              "name": "email",
              "type": "string"
            }
          ],
          "indexed": false,
          "internalType": "struct Storage.user",
          "name": "",
          "type": "tuple"
        }
      ],
      "name": "userAdded",
      "type": "event"
    },
    {
      "inputs": [
        {
          "internalType": "address",
          "name": "",
          "type": "address"
        }
      ],
      "name": "store",
      "outputs": [
        {
          "internalType": "string",
          "name": "name",
          "type": "string"
        },
        {
          "internalType": "string",
          "name": "email",
          "type": "string"
        }
      ],
      "stateMutability": "view",
      "type": "function",
      "constant": true
    },
    {
      "inputs": [
        {
          "components": [
            {
              "internalType": "string",
              "name": "name",
              "type": "string"
            },
            {
              "internalType": "string",
              "name": "email",
              "type": "string"
            }
          ],
          "internalType": "struct Storage.user",
          "name": "details",
          "type": "tuple"
        }
      ],
      "name": "addUser",
      "outputs": [],
      "stateMutability": "nonpayable",
      "type": "function"
    },
    {
      "inputs": [],
      "name": "getUser",
      "outputs": [
        {
          "components": [
            {
              "internalType": "string",
              "name": "name",
              "type": "string"
            },
            {
              "internalType": "string",
              "name": "email",
              "type": "string"
            }
          ],
          "internalType": "struct Storage.user",
          "name": "",
          "type": "tuple"
        }
      ],
      "stateMutability": "nonpayable",
      "type": "function"
    }
  ],
  "bytecode": "0x60806040523480156200001157600080fd5b50336000806101000a81548173ffffffffffffffffffffffffffffffffffffffff021916908373ffffffffffffffffffffffffffffffffffffffff1602179055506200005c62000160565b6040518060400160405280600681526020017f65657368616e000000000000000000000000000000000000000000000000000081525081600001819052506040518060400160405280600781526020017f6473614031323300000000000000000000000000000000000000000000000000815250816020018190525080600160003373ffffffffffffffffffffffffffffffffffffffff1673ffffffffffffffffffffffffffffffffffffffff1681526020019081526020016000206000820151816000019080519060200190620001369291906200017a565b506020820151816001019080519060200190620001559291906200017a565b50905050506200028e565b604051806040016040528060608152602001606081525090565b828054620001889062000259565b90600052602060002090601f016020900481019282620001ac5760008555620001f8565b82601f10620001c757805160ff1916838001178555620001f8565b82800160010185558215620001f8579182015b82811115620001f7578251825591602001919060010190620001da565b5b5090506200020791906200020b565b5090565b5b80821115620002265760008160009055506001016200020c565b5090565b7f4e487b7100000000000000000000000000000000000000000000000000000000600052602260045260246000fd5b600060028204905060018216806200027257607f821691505b6020821081036200028857620002876200022a565b5b50919050565b610ad2806200029e6000396000f3fe608060405234801561001057600080fd5b50600436106100415760003560e01c8063832880e7146100465780639e39db7314610064578063feef445614610095575b600080fd5b61004e6100b1565b60405161005b91906105ef565b60405180910390f35b61007e60048036038101906100799190610683565b6102a1565b60405161008c9291906106fa565b60405180910390f35b6100af60048036038101906100aa91906108f8565b6103d5565b005b6100b9610455565b7f757b15bea84efc4d89aa600e3459c9d3c30d68482d14336268cbd6ce603d96d1600160003373ffffffffffffffffffffffffffffffffffffffff1673ffffffffffffffffffffffffffffffffffffffff1681526020019081526020016000206040516101269190610a7a565b60405180910390a1600160003373ffffffffffffffffffffffffffffffffffffffff1673ffffffffffffffffffffffffffffffffffffffff16815260200190815260200160002060405180604001604052908160008201805461018890610970565b80601f01602080910402602001604051908101604052809291908181526020018280546101b490610970565b80156102015780601f106101d657610100808354040283529160200191610201565b820191906000526020600020905b8154815290600101906020018083116101e457829003601f168201915b5050505050815260200160018201805461021a90610970565b80601f016020809104026020016040519081016040528092919081815260200182805461024690610970565b80156102935780601f1061026857610100808354040283529160200191610293565b820191906000526020600020905b81548152906001019060200180831161027657829003601f168201915b505050505081525050905090565b60016020528060005260406000206000915090508060000180546102c490610970565b80601f01602080910402602001604051908101604052809291908181526020018280546102f090610970565b801561033d5780601f106103125761010080835404028352916020019161033d565b820191906000526020600020905b81548152906001019060200180831161032057829003601f168201915b50505050509080600101805461035290610970565b80601f016020809104026020016040519081016040528092919081815260200182805461037e90610970565b80156103cb5780601f106103a0576101008083540402835291602001916103cb565b820191906000526020600020905b8154815290600101906020018083116103ae57829003601f168201915b5050505050905082565b80600160003373ffffffffffffffffffffffffffffffffffffffff1673ffffffffffffffffffffffffffffffffffffffff168152602001908152602001600020600082015181600001908051906020019061043192919061046f565b50602082015181600101908051906020019061044e92919061046f565b5090505050565b604051806040016040528060608152602001606081525090565b82805461047b90610970565b90600052602060002090601f01602090048101928261049d57600085556104e4565b82601f106104b657805160ff19168380011785556104e4565b828001600101855582156104e4579182015b828111156104e35782518255916020019190600101906104c8565b5b5090506104f191906104f5565b5090565b5b8082111561050e5760008160009055506001016104f6565b5090565b600081519050919050565b600082825260208201905092915050565b60005b8381101561054c578082015181840152602081019050610531565b8381111561055b576000848401525b50505050565b6000601f19601f8301169050919050565b600061057d82610512565b610587818561051d565b935061059781856020860161052e565b6105a081610561565b840191505092915050565b600060408301600083015184820360008601526105c88282610572565b915050602083015184820360208601526105e28282610572565b9150508091505092915050565b6000602082019050818103600083015261060981846105ab565b905092915050565b6000604051905090565b600080fd5b600080fd5b600073ffffffffffffffffffffffffffffffffffffffff82169050919050565b600061065082610625565b9050919050565b61066081610645565b811461066b57600080fd5b50565b60008135905061067d81610657565b92915050565b6000602082840312156106995761069861061b565b5b60006106a78482850161066e565b91505092915050565b600082825260208201905092915050565b60006106cc82610512565b6106d681856106b0565b93506106e681856020860161052e565b6106ef81610561565b840191505092915050565b6000604082019050818103600083015261071481856106c1565b9050818103602083015261072881846106c1565b90509392505050565b600080fd5b7f4e487b7100000000000000000000000000000000000000000000000000000000600052604160045260246000fd5b61076e82610561565b810181811067ffffffffffffffff8211171561078d5761078c610736565b5b80604052505050565b60006107a0610611565b90506107ac8282610765565b919050565b600080fd5b600080fd5b600080fd5b600067ffffffffffffffff8211156107db576107da610736565b5b6107e482610561565b9050602081019050919050565b82818337600083830152505050565b600061081361080e846107c0565b610796565b90508281526020810184848401111561082f5761082e6107bb565b5b61083a8482856107f1565b509392505050565b600082601f830112610857576108566107b6565b5b8135610867848260208601610800565b91505092915050565b60006040828403121561088657610885610731565b5b6108906040610796565b9050600082013567ffffffffffffffff8111156108b0576108af6107b1565b5b6108bc84828501610842565b600083015250602082013567ffffffffffffffff8111156108e0576108df6107b1565b5b6108ec84828501610842565b60208301525092915050565b60006020828403121561090e5761090d61061b565b5b600082013567ffffffffffffffff81111561092c5761092b610620565b5b61093884828501610870565b91505092915050565b7f4e487b7100000000000000000000000000000000000000000000000000000000600052602260045260246000fd5b6000600282049050600182168061098857607f821691505b60208210810361099b5761099a610941565b5b50919050565b60008190508160005260206000209050919050565b600081546109c381610970565b6109cd818661051d565b945060018216600081146109e857600181146109fa57610a2d565b60ff1983168652602086019350610a2d565b610a03856109a1565b60005b83811015610a2557815481890152600182019150602081019050610a06565b808801955050505b50505092915050565b60006040830160008084018583036000870152610a5383826109b6565b925050600184018583036020870152610a6c83826109b6565b925050819250505092915050565b60006020820190508181036000830152610a948184610a36565b90509291505056fea26469706673582212206e47033eb98909a901e1afbf7c1eb8a48f0ec8963aeb92054cb5b5bab97343b764736f6c634300080e0033",
  "immutableReferences": {},
  "source": "// SPDX-License-Identifier: MIT\npragma solidity >=0.4.22 <0.9.0;\ncontract Storage{\n    address admin;\n    struct user{\n        string name;\n        string email;\n    }\n    mapping (address=>user) public store;\n    constructor(){\n        admin=msg.sender;\n        user memory u;\n        u.name=\"eeshan\";\n        u.email=\"dsa@123\";\n        store[msg.sender]=u;\n    }    \n    event userAdded(\n        user\n    );  \n    function addUser(user memory details) public{\n        store[msg.sender]=details;\n        // emit userAdded(details);\n    }\n    function getUser() public  returns (user memory){\n        emit userAdded(store[msg.sender]);\n        return store[msg.sender];\n    }\n}\n\n\n",
  "sourcePath": "/home/hashcat/DEV/BLOCKCHAIN/metamask-blockchhain-auth/contracts/Storage.sol",
  "compiler": {
    "name": "solc",
    "version": "0.8.14+commit.80d49f37.Emscripten.clang"
  },
  "schemaVersion": "3.4.7",
  "updatedAt": "2022-06-06T18:08:39.534Z",
  "networkType": "ethereum",
  "devdoc": {
    "kind": "dev",
    "methods": {},
    "version": 1
  },
  "userdoc": {
    "kind": "user",
    "methods": {},
    "version": 1
  }
}