{
  "contractName": "Storage",
  "abi": [
    {
      "inputs": [],
      "stateMutability": "nonpayable",
      "type": "constructor"
    },
    {
      "anonymous": false,
      "inputs": [
        {
          "components": [
            {
              "internalType": "string",
              "name": "name",
              "type": "string"
            },
            {
              "internalType": "string",
              "name": "email",
              "type": "string"
            }
          ],
          "indexed": false,
          "internalType": "struct Storage.user",
          "name": "",
          "type": "tuple"
        }
      ],
      "name": "userAdded",
      "type": "event"
    },
    {
      "inputs": [
        {
          "internalType": "address",
          "name": "",
          "type": "address"
        }
      ],
      "name": "store",
      "outputs": [
        {
          "internalType": "string",
          "name": "name",
          "type": "string"
        },
        {
          "internalType": "string",
          "name": "email",
          "type": "string"
        }
      ],
      "stateMutability": "view",
      "type": "function",
      "constant": true
    },
    {
      "inputs": [
        {
          "components": [
            {
              "internalType": "string",
              "name": "name",
              "type": "string"
            },
            {
              "internalType": "string",
              "name": "email",
              "type": "string"
            }
          ],
          "internalType": "struct Storage.user",
          "name": "details",
          "type": "tuple"
        }
      ],
      "name": "addUser",
      "outputs": [],
      "stateMutability": "nonpayable",
      "type": "function"
    },
    {
      "inputs": [
        {
          "internalType": "address",
          "name": "add",
          "type": "address"
        }
      ],
      "name": "getUser",
      "outputs": [
        {
          "internalType": "string",
          "name": "",
          "type": "string"
        },
        {
          "internalType": "string",
          "name": "",
          "type": "string"
        }
      ],
      "stateMutability": "nonpayable",
      "type": "function"
    }
  ],
  "bytecode": "0x608060405234801561001057600080fd5b50336000806101000a81548173ffffffffffffffffffffffffffffffffffffffff021916908373ffffffffffffffffffffffffffffffffffffffff160217905550610b10806100606000396000f3fe608060405234801561001057600080fd5b50600436106100415760003560e01c80636f77926b146100465780639e39db7314610077578063feef4456146100a8575b600080fd5b610060600480360381019061005b91906105c2565b6100c4565b60405161006e929190610688565b60405180910390f35b610091600480360381019061008c91906105c2565b6102c2565b60405161009f929190610688565b60405180910390f35b6100c260048036038101906100bd9190610886565b6103f6565b005b6060807f757b15bea84efc4d89aa600e3459c9d3c30d68482d14336268cbd6ce603d96d1600160003373ffffffffffffffffffffffffffffffffffffffff1673ffffffffffffffffffffffffffffffffffffffff1681526020019081526020016000206040516101349190610a19565b60405180910390a16000600160008573ffffffffffffffffffffffffffffffffffffffff1673ffffffffffffffffffffffffffffffffffffffff168152602001908152602001600020604051806040016040529081600082018054610198906108fe565b80601f01602080910402602001604051908101604052809291908181526020018280546101c4906108fe565b80156102115780601f106101e657610100808354040283529160200191610211565b820191906000526020600020905b8154815290600101906020018083116101f457829003601f168201915b5050505050815260200160018201805461022a906108fe565b80601f0160208091040260200160405190810160405280929190818152602001828054610256906108fe565b80156102a35780601f10610278576101008083540402835291602001916102a3565b820191906000526020600020905b81548152906001019060200180831161028657829003601f168201915b5050505050815250509050806000015181602001519250925050915091565b60016020528060005260406000206000915090508060000180546102e5906108fe565b80601f0160208091040260200160405190810160405280929190818152602001828054610311906108fe565b801561035e5780601f106103335761010080835404028352916020019161035e565b820191906000526020600020905b81548152906001019060200180831161034157829003601f168201915b505050505090806001018054610373906108fe565b80601f016020809104026020016040519081016040528092919081815260200182805461039f906108fe565b80156103ec5780601f106103c1576101008083540402835291602001916103ec565b820191906000526020600020905b8154815290600101906020018083116103cf57829003601f168201915b5050505050905082565b80600160003373ffffffffffffffffffffffffffffffffffffffff1673ffffffffffffffffffffffffffffffffffffffff16815260200190815260200160002060008201518160000190805190602001906104529291906104ad565b50602082015181600101908051906020019061046f9291906104ad565b509050507f757b15bea84efc4d89aa600e3459c9d3c30d68482d14336268cbd6ce603d96d1816040516104a29190610ab8565b60405180910390a150565b8280546104b9906108fe565b90600052602060002090601f0160209004810192826104db5760008555610522565b82601f106104f457805160ff1916838001178555610522565b82800160010185558215610522579182015b82811115610521578251825591602001919060010190610506565b5b50905061052f9190610533565b5090565b5b8082111561054c576000816000905550600101610534565b5090565b6000604051905090565b600080fd5b600080fd5b600073ffffffffffffffffffffffffffffffffffffffff82169050919050565b600061058f82610564565b9050919050565b61059f81610584565b81146105aa57600080fd5b50565b6000813590506105bc81610596565b92915050565b6000602082840312156105d8576105d761055a565b5b60006105e6848285016105ad565b91505092915050565b600081519050919050565b600082825260208201905092915050565b60005b8381101561062957808201518184015260208101905061060e565b83811115610638576000848401525b50505050565b6000601f19601f8301169050919050565b600061065a826105ef565b61066481856105fa565b935061067481856020860161060b565b61067d8161063e565b840191505092915050565b600060408201905081810360008301526106a2818561064f565b905081810360208301526106b6818461064f565b90509392505050565b600080fd5b7f4e487b7100000000000000000000000000000000000000000000000000000000600052604160045260246000fd5b6106fc8261063e565b810181811067ffffffffffffffff8211171561071b5761071a6106c4565b5b80604052505050565b600061072e610550565b905061073a82826106f3565b919050565b600080fd5b600080fd5b600080fd5b600067ffffffffffffffff821115610769576107686106c4565b5b6107728261063e565b9050602081019050919050565b82818337600083830152505050565b60006107a161079c8461074e565b610724565b9050828152602081018484840111156107bd576107bc610749565b5b6107c884828561077f565b509392505050565b600082601f8301126107e5576107e4610744565b5b81356107f584826020860161078e565b91505092915050565b600060408284031215610814576108136106bf565b5b61081e6040610724565b9050600082013567ffffffffffffffff81111561083e5761083d61073f565b5b61084a848285016107d0565b600083015250602082013567ffffffffffffffff81111561086e5761086d61073f565b5b61087a848285016107d0565b60208301525092915050565b60006020828403121561089c5761089b61055a565b5b600082013567ffffffffffffffff8111156108ba576108b961055f565b5b6108c6848285016107fe565b91505092915050565b7f4e487b7100000000000000000000000000000000000000000000000000000000600052602260045260246000fd5b6000600282049050600182168061091657607f821691505b602082108103610929576109286108cf565b5b50919050565b600082825260208201905092915050565b60008190508160005260206000209050919050565b60008154610962816108fe565b61096c818661092f565b945060018216600081146109875760018114610999576109cc565b60ff19831686526020860193506109cc565b6109a285610940565b60005b838110156109c4578154818901526001820191506020810190506109a5565b808801955050505b50505092915050565b600060408301600080840185830360008701526109f28382610955565b925050600184018583036020870152610a0b8382610955565b925050819250505092915050565b60006020820190508181036000830152610a3381846109d5565b905092915050565b6000610a46826105ef565b610a50818561092f565b9350610a6081856020860161060b565b610a698161063e565b840191505092915050565b60006040830160008301518482036000860152610a918282610a3b565b91505060208301518482036020860152610aab8282610a3b565b9150508091505092915050565b60006020820190508181036000830152610ad28184610a74565b90509291505056fea2646970667358221220e8709c28328edc14b88770f561feeb49d2ebfb46847e171f2248803cccb717ec64736f6c634300080e0033",
  "immutableReferences": {},
  "source": "// SPDX-License-Identifier: MIT\npragma solidity >=0.4.22 <0.9.0;\ncontract Storage{\n    address admin;\n    struct user{\n        string name;\n        string email;\n    }\n    mapping (address=>user) public store;\n    constructor(){\n        admin=msg.sender;\n        \n    }    \n    event userAdded( user);  \n\n    function addUser(user memory details) public{\n        store[msg.sender]=details;\n        emit userAdded(details);\n    }\n    \n    function getUser(address add) public  returns (string memory,string memory){\n        emit userAdded(store[msg.sender]);\n        user memory u=store[add];\n        return(u.name,u.email);\n    }\n}\n\n\n",
  "sourcePath": "/home/hashcat/DEV/BLOCKCHAIN/metamask-blockchhain-auth/contracts/Storage.sol",
  "compiler": {
    "name": "solc",
    "version": "0.8.14+commit.80d49f37.Emscripten.clang"
  },
  "schemaVersion": "3.4.7",
  "updatedAt": "2022-06-08T17:26:00.280Z",
  "networkType": "ethereum",
  "devdoc": {
    "kind": "dev",
    "methods": {},
    "version": 1
  },
  "userdoc": {
    "kind": "user",
    "methods": {},
    "version": 1
  }
}